{
  "_format": "hh-sol-artifact-1",
  "contractName": "CinemaNFT",
  "sourceName": "Contracts/NFTContract.sol",
  "abi": [
    {
      "inputs": [
        {
          "internalType": "address",
          "name": "_marketplaceContract",
          "type": "address"
        }
      ],
      "stateMutability": "nonpayable",
      "type": "constructor"
    },
    {
      "anonymous": false,
      "inputs": [
        {
          "indexed": true,
          "internalType": "address",
          "name": "owner",
          "type": "address"
        },
        {
          "indexed": true,
          "internalType": "address",
          "name": "approved",
          "type": "address"
        },
        {
          "indexed": true,
          "internalType": "uint256",
          "name": "tokenId",
          "type": "uint256"
        }
      ],
      "name": "Approval",
      "type": "event"
    },
    {
      "anonymous": false,
      "inputs": [
        {
          "indexed": true,
          "internalType": "address",
          "name": "owner",
          "type": "address"
        },
        {
          "indexed": true,
          "internalType": "address",
          "name": "operator",
          "type": "address"
        },
        {
          "indexed": false,
          "internalType": "bool",
          "name": "approved",
          "type": "bool"
        }
      ],
      "name": "ApprovalForAll",
      "type": "event"
    },
    {
      "anonymous": false,
      "inputs": [
        {
          "indexed": false,
          "internalType": "uint256",
          "name": "_fromTokenId",
          "type": "uint256"
        },
        {
          "indexed": false,
          "internalType": "uint256",
          "name": "_toTokenId",
          "type": "uint256"
        }
      ],
      "name": "BatchMetadataUpdate",
      "type": "event"
    },
    {
      "anonymous": false,
      "inputs": [
        {
          "indexed": false,
          "internalType": "uint256",
          "name": "_tokenId",
          "type": "uint256"
        }
      ],
      "name": "MetadataUpdate",
      "type": "event"
    },
    {
      "anonymous": false,
      "inputs": [
        {
          "indexed": false,
          "internalType": "uint256",
          "name": "",
          "type": "uint256"
        }
      ],
      "name": "NFTMinted",
      "type": "event"
    },
    {
      "anonymous": false,
      "inputs": [
        {
          "indexed": true,
          "internalType": "address",
          "name": "from",
          "type": "address"
        },
        {
          "indexed": true,
          "internalType": "address",
          "name": "to",
          "type": "address"
        },
        {
          "indexed": true,
          "internalType": "uint256",
          "name": "tokenId",
          "type": "uint256"
        }
      ],
      "name": "Transfer",
      "type": "event"
    },
    {
      "inputs": [
        {
          "internalType": "address",
          "name": "to",
          "type": "address"
        },
        {
          "internalType": "uint256",
          "name": "tokenId",
          "type": "uint256"
        }
      ],
      "name": "approve",
      "outputs": [],
      "stateMutability": "nonpayable",
      "type": "function"
    },
    {
      "inputs": [
        {
          "internalType": "address",
          "name": "owner",
          "type": "address"
        }
      ],
      "name": "balanceOf",
      "outputs": [
        {
          "internalType": "uint256",
          "name": "",
          "type": "uint256"
        }
      ],
      "stateMutability": "view",
      "type": "function"
    },
    {
      "inputs": [
        {
          "internalType": "uint256",
          "name": "tokenId",
          "type": "uint256"
        }
      ],
      "name": "getApproved",
      "outputs": [
        {
          "internalType": "address",
          "name": "",
          "type": "address"
        }
      ],
      "stateMutability": "view",
      "type": "function"
    },
    {
      "inputs": [
        {
          "internalType": "address",
          "name": "owner",
          "type": "address"
        },
        {
          "internalType": "address",
          "name": "operator",
          "type": "address"
        }
      ],
      "name": "isApprovedForAll",
      "outputs": [
        {
          "internalType": "bool",
          "name": "",
          "type": "bool"
        }
      ],
      "stateMutability": "view",
      "type": "function"
    },
    {
      "inputs": [
        {
          "internalType": "string",
          "name": "_tokenURI",
          "type": "string"
        }
      ],
      "name": "mint",
      "outputs": [],
      "stateMutability": "nonpayable",
      "type": "function"
    },
    {
      "inputs": [],
      "name": "name",
      "outputs": [
        {
          "internalType": "string",
          "name": "",
          "type": "string"
        }
      ],
      "stateMutability": "view",
      "type": "function"
    },
    {
      "inputs": [
        {
          "internalType": "uint256",
          "name": "tokenId",
          "type": "uint256"
        }
      ],
      "name": "ownerOf",
      "outputs": [
        {
          "internalType": "address",
          "name": "",
          "type": "address"
        }
      ],
      "stateMutability": "view",
      "type": "function"
    },
    {
      "inputs": [
        {
          "internalType": "address",
          "name": "from",
          "type": "address"
        },
        {
          "internalType": "address",
          "name": "to",
          "type": "address"
        },
        {
          "internalType": "uint256",
          "name": "tokenId",
          "type": "uint256"
        }
      ],
      "name": "safeTransferFrom",
      "outputs": [],
      "stateMutability": "nonpayable",
      "type": "function"
    },
    {
      "inputs": [
        {
          "internalType": "address",
          "name": "from",
          "type": "address"
        },
        {
          "internalType": "address",
          "name": "to",
          "type": "address"
        },
        {
          "internalType": "uint256",
          "name": "tokenId",
          "type": "uint256"
        },
        {
          "internalType": "bytes",
          "name": "data",
          "type": "bytes"
        }
      ],
      "name": "safeTransferFrom",
      "outputs": [],
      "stateMutability": "nonpayable",
      "type": "function"
    },
    {
      "inputs": [
        {
          "internalType": "address",
          "name": "operator",
          "type": "address"
        },
        {
          "internalType": "bool",
          "name": "approved",
          "type": "bool"
        }
      ],
      "name": "setApprovalForAll",
      "outputs": [],
      "stateMutability": "nonpayable",
      "type": "function"
    },
    {
      "inputs": [
        {
          "internalType": "bytes4",
          "name": "interfaceId",
          "type": "bytes4"
        }
      ],
      "name": "supportsInterface",
      "outputs": [
        {
          "internalType": "bool",
          "name": "",
          "type": "bool"
        }
      ],
      "stateMutability": "view",
      "type": "function"
    },
    {
      "inputs": [],
      "name": "symbol",
      "outputs": [
        {
          "internalType": "string",
          "name": "",
          "type": "string"
        }
      ],
      "stateMutability": "view",
      "type": "function"
    },
    {
      "inputs": [
        {
          "internalType": "uint256",
          "name": "tokenId",
          "type": "uint256"
        }
      ],
      "name": "tokenURI",
      "outputs": [
        {
          "internalType": "string",
          "name": "",
          "type": "string"
        }
      ],
      "stateMutability": "view",
      "type": "function"
    },
    {
      "inputs": [
        {
          "internalType": "address",
          "name": "from",
          "type": "address"
        },
        {
          "internalType": "address",
          "name": "to",
          "type": "address"
        },
        {
          "internalType": "uint256",
          "name": "tokenId",
          "type": "uint256"
        }
      ],
      "name": "transferFrom",
      "outputs": [],
      "stateMutability": "nonpayable",
      "type": "function"
    }
  ],
  "bytecode": "0x60806040523480156200001157600080fd5b5060405162002ca238038062002ca2833981810160405281019062000037919062000239565b6040518060400160405280601581526020017f43696e656d61204e465420436f6c6c656374696f6e00000000000000000000008152506040518060400160405280600381526020017f434e4300000000000000000000000000000000000000000000000000000000008152508160009080519060200190620000bb9291906200011f565b508060019080519060200190620000d49291906200011f565b50505080600860006101000a81548173ffffffffffffffffffffffffffffffffffffffff021916908373ffffffffffffffffffffffffffffffffffffffff16021790555050620002cf565b8280546200012d906200029a565b90600052602060002090601f0160209004810192826200015157600085556200019d565b82601f106200016c57805160ff19168380011785556200019d565b828001600101855582156200019d579182015b828111156200019c5782518255916020019190600101906200017f565b5b509050620001ac9190620001b0565b5090565b5b80821115620001cb576000816000905550600101620001b1565b5090565b600080fd5b600073ffffffffffffffffffffffffffffffffffffffff82169050919050565b60006200020182620001d4565b9050919050565b6200021381620001f4565b81146200021f57600080fd5b50565b600081519050620002338162000208565b92915050565b600060208284031215620002525762000251620001cf565b5b6000620002628482850162000222565b91505092915050565b7f4e487b7100000000000000000000000000000000000000000000000000000000600052602260045260246000fd5b60006002820490506001821680620002b357607f821691505b602082108103620002c957620002c86200026b565b5b50919050565b6129c380620002df6000396000f3fe608060405234801561001057600080fd5b50600436106100ea5760003560e01c806370a082311161008c578063b88d4fde11610066578063b88d4fde1461025b578063c87b56dd14610277578063d85d3d27146102a7578063e985e9c5146102c3576100ea565b806370a08231146101f157806395d89b4114610221578063a22cb4651461023f576100ea565b8063095ea7b3116100c8578063095ea7b31461016d57806323b872dd1461018957806342842e0e146101a55780636352211e146101c1576100ea565b806301ffc9a7146100ef57806306fdde031461011f578063081812fc1461013d575b600080fd5b61010960048036038101906101049190611b3a565b6102f3565b6040516101169190611b82565b60405180910390f35b610127610354565b6040516101349190611c36565b60405180910390f35b61015760048036038101906101529190611c8e565b6103e6565b6040516101649190611cfc565b60405180910390f35b61018760048036038101906101829190611d43565b61042c565b005b6101a3600480360381019061019e9190611d83565b610543565b005b6101bf60048036038101906101ba9190611d83565b6105a3565b005b6101db60048036038101906101d69190611c8e565b6105c3565b6040516101e89190611cfc565b60405180910390f35b61020b60048036038101906102069190611dd6565b610649565b6040516102189190611e12565b60405180910390f35b610229610700565b6040516102369190611c36565b60405180910390f35b61025960048036038101906102549190611e59565b610792565b005b61027560048036038101906102709190611fce565b6107a8565b005b610291600480360381019061028c9190611c8e565b61080a565b60405161029e9190611c36565b60405180910390f35b6102c160048036038101906102bc91906120f2565b61091c565b005b6102dd60048036038101906102d8919061213b565b6109b0565b6040516102ea9190611b82565b60405180910390f35b6000634906490660e01b7bffffffffffffffffffffffffffffffffffffffffffffffffffffffff1916827bffffffffffffffffffffffffffffffffffffffffffffffffffffffff1916148061034d575061034c82610a44565b5b9050919050565b606060008054610363906121aa565b80601f016020809104026020016040519081016040528092919081815260200182805461038f906121aa565b80156103dc5780601f106103b1576101008083540402835291602001916103dc565b820191906000526020600020905b8154815290600101906020018083116103bf57829003601f168201915b5050505050905090565b60006103f182610b26565b6004600083815260200190815260200160002060009054906101000a900473ffffffffffffffffffffffffffffffffffffffff169050919050565b6000610437826105c3565b90508073ffffffffffffffffffffffffffffffffffffffff168373ffffffffffffffffffffffffffffffffffffffff16036104a7576040517f08c379a000000000000000000000000000000000000000000000000000000000815260040161049e9061224d565b60405180910390fd5b8073ffffffffffffffffffffffffffffffffffffffff166104c6610b71565b73ffffffffffffffffffffffffffffffffffffffff1614806104f557506104f4816104ef610b71565b6109b0565b5b610534576040517f08c379a000000000000000000000000000000000000000000000000000000000815260040161052b906122df565b60405180910390fd5b61053e8383610b79565b505050565b61055461054e610b71565b82610c32565b610593576040517f08c379a000000000000000000000000000000000000000000000000000000000815260040161058a90612371565b60405180910390fd5b61059e838383610cc7565b505050565b6105be838383604051806020016040528060008152506107a8565b505050565b6000806105cf83610fc0565b9050600073ffffffffffffffffffffffffffffffffffffffff168173ffffffffffffffffffffffffffffffffffffffff1603610640576040517f08c379a0000000000000000000000000000000000000000000000000000000008152600401610637906123dd565b60405180910390fd5b80915050919050565b60008073ffffffffffffffffffffffffffffffffffffffff168273ffffffffffffffffffffffffffffffffffffffff16036106b9576040517f08c379a00000000000000000000000000000000000000000000000000000000081526004016106b09061246f565b60405180910390fd5b600360008373ffffffffffffffffffffffffffffffffffffffff1673ffffffffffffffffffffffffffffffffffffffff168152602001908152602001600020549050919050565b60606001805461070f906121aa565b80601f016020809104026020016040519081016040528092919081815260200182805461073b906121aa565b80156107885780601f1061075d57610100808354040283529160200191610788565b820191906000526020600020905b81548152906001019060200180831161076b57829003601f168201915b5050505050905090565b6107a461079d610b71565b8383610ffd565b5050565b6107b96107b3610b71565b83610c32565b6107f8576040517f08c379a00000000000000000000000000000000000000000000000000000000081526004016107ef90612371565b60405180910390fd5b61080484848484611169565b50505050565b606061081582610b26565b6000600660008481526020019081526020016000208054610835906121aa565b80601f0160208091040260200160405190810160405280929190818152602001828054610861906121aa565b80156108ae5780601f10610883576101008083540402835291602001916108ae565b820191906000526020600020905b81548152906001019060200180831161089157829003601f168201915b5050505050905060006108bf6111c5565b905060008151036108d4578192505050610917565b6000825111156109095780826040516020016108f19291906124cb565b60405160208183030381529060405292505050610917565b610912846111dc565b925050505b919050565b6109266007611244565b6000610932600761125a565b905061093e3382611268565b6109488183611286565b610975600860009054906101000a900473ffffffffffffffffffffffffffffffffffffffff166001610792565b7fd9dc24857f317ed9abbbb42e920ede0104231eb1d3d70236a74887ffaf159868816040516109a49190611e12565b60405180910390a15050565b6000600560008473ffffffffffffffffffffffffffffffffffffffff1673ffffffffffffffffffffffffffffffffffffffff16815260200190815260200160002060008373ffffffffffffffffffffffffffffffffffffffff1673ffffffffffffffffffffffffffffffffffffffff16815260200190815260200160002060009054906101000a900460ff16905092915050565b60007f80ac58cd000000000000000000000000000000000000000000000000000000007bffffffffffffffffffffffffffffffffffffffffffffffffffffffff1916827bffffffffffffffffffffffffffffffffffffffffffffffffffffffff19161480610b0f57507f5b5e139f000000000000000000000000000000000000000000000000000000007bffffffffffffffffffffffffffffffffffffffffffffffffffffffff1916827bffffffffffffffffffffffffffffffffffffffffffffffffffffffff1916145b80610b1f5750610b1e82611331565b5b9050919050565b610b2f8161139b565b610b6e576040517f08c379a0000000000000000000000000000000000000000000000000000000008152600401610b65906123dd565b60405180910390fd5b50565b600033905090565b816004600083815260200190815260200160002060006101000a81548173ffffffffffffffffffffffffffffffffffffffff021916908373ffffffffffffffffffffffffffffffffffffffff160217905550808273ffffffffffffffffffffffffffffffffffffffff16610bec836105c3565b73ffffffffffffffffffffffffffffffffffffffff167f8c5be1e5ebec7d5bd14f71427d1e84f3dd0314c0f7b2291e5b200ac8c7c3b92560405160405180910390a45050565b600080610c3e836105c3565b90508073ffffffffffffffffffffffffffffffffffffffff168473ffffffffffffffffffffffffffffffffffffffff161480610c805750610c7f81856109b0565b5b80610cbe57508373ffffffffffffffffffffffffffffffffffffffff16610ca6846103e6565b73ffffffffffffffffffffffffffffffffffffffff16145b91505092915050565b8273ffffffffffffffffffffffffffffffffffffffff16610ce7826105c3565b73ffffffffffffffffffffffffffffffffffffffff1614610d3d576040517f08c379a0000000000000000000000000000000000000000000000000000000008152600401610d3490612561565b60405180910390fd5b600073ffffffffffffffffffffffffffffffffffffffff168273ffffffffffffffffffffffffffffffffffffffff1603610dac576040517f08c379a0000000000000000000000000000000000000000000000000000000008152600401610da3906125f3565b60405180910390fd5b610db983838360016113dc565b8273ffffffffffffffffffffffffffffffffffffffff16610dd9826105c3565b73ffffffffffffffffffffffffffffffffffffffff1614610e2f576040517f08c379a0000000000000000000000000000000000000000000000000000000008152600401610e2690612561565b60405180910390fd5b6004600082815260200190815260200160002060006101000a81549073ffffffffffffffffffffffffffffffffffffffff02191690556001600360008573ffffffffffffffffffffffffffffffffffffffff1673ffffffffffffffffffffffffffffffffffffffff168152602001908152602001600020600082825403925050819055506001600360008473ffffffffffffffffffffffffffffffffffffffff1673ffffffffffffffffffffffffffffffffffffffff16815260200190815260200160002060008282540192505081905550816002600083815260200190815260200160002060006101000a81548173ffffffffffffffffffffffffffffffffffffffff021916908373ffffffffffffffffffffffffffffffffffffffff160217905550808273ffffffffffffffffffffffffffffffffffffffff168473ffffffffffffffffffffffffffffffffffffffff167fddf252ad1be2c89b69c2b068fc378daa952ba7f163c4a11628f55a4df523b3ef60405160405180910390a4610fbb83838360016113e2565b505050565b60006002600083815260200190815260200160002060009054906101000a900473ffffffffffffffffffffffffffffffffffffffff169050919050565b8173ffffffffffffffffffffffffffffffffffffffff168373ffffffffffffffffffffffffffffffffffffffff160361106b576040517f08c379a00000000000000000000000000000000000000000000000000000000081526004016110629061265f565b60405180910390fd5b80600560008573ffffffffffffffffffffffffffffffffffffffff1673ffffffffffffffffffffffffffffffffffffffff16815260200190815260200160002060008473ffffffffffffffffffffffffffffffffffffffff1673ffffffffffffffffffffffffffffffffffffffff16815260200190815260200160002060006101000a81548160ff0219169083151502179055508173ffffffffffffffffffffffffffffffffffffffff168373ffffffffffffffffffffffffffffffffffffffff167f17307eab39ab6107e8899845ad3d59bd9653f200f220920489ca2b5937696c318360405161115c9190611b82565b60405180910390a3505050565b611174848484610cc7565b611180848484846113e8565b6111bf576040517f08c379a00000000000000000000000000000000000000000000000000000000081526004016111b6906126f1565b60405180910390fd5b50505050565b606060405180602001604052806000815250905090565b60606111e782610b26565b60006111f16111c5565b90506000815111611211576040518060200160405280600081525061123c565b8061121b8461156f565b60405160200161122c9291906124cb565b6040516020818303038152906040525b915050919050565b6001816000016000828254019250508190555050565b600081600001549050919050565b61128282826040518060200160405280600081525061163d565b5050565b61128f8261139b565b6112ce576040517f08c379a00000000000000000000000000000000000000000000000000000000081526004016112c590612783565b60405180910390fd5b806006600084815260200190815260200160002090805190602001906112f5929190611a2b565b507ff8e1a15aba9398e019f0b49df1a4fde98ee17ae345cb5f6b5e2c27f5033e8ce7826040516113259190611e12565b60405180910390a15050565b60007f01ffc9a7000000000000000000000000000000000000000000000000000000007bffffffffffffffffffffffffffffffffffffffffffffffffffffffff1916827bffffffffffffffffffffffffffffffffffffffffffffffffffffffff1916149050919050565b60008073ffffffffffffffffffffffffffffffffffffffff166113bd83610fc0565b73ffffffffffffffffffffffffffffffffffffffff1614159050919050565b50505050565b50505050565b60006114098473ffffffffffffffffffffffffffffffffffffffff16611698565b15611562578373ffffffffffffffffffffffffffffffffffffffff1663150b7a02611432610b71565b8786866040518563ffffffff1660e01b815260040161145494939291906127f8565b6020604051808303816000875af192505050801561149057506040513d601f19601f8201168201806040525081019061148d9190612859565b60015b611512573d80600081146114c0576040519150601f19603f3d011682016040523d82523d6000602084013e6114c5565b606091505b50600081510361150a576040517f08c379a0000000000000000000000000000000000000000000000000000000008152600401611501906126f1565b60405180910390fd5b805181602001fd5b63150b7a0260e01b7bffffffffffffffffffffffffffffffffffffffffffffffffffffffff1916817bffffffffffffffffffffffffffffffffffffffffffffffffffffffff191614915050611567565b600190505b949350505050565b60606000600161157e846116bb565b01905060008167ffffffffffffffff81111561159d5761159c611ea3565b5b6040519080825280601f01601f1916602001820160405280156115cf5781602001600182028036833780820191505090505b509050600082602001820190505b600115611632578080600190039150507f3031323334353637383961626364656600000000000000000000000000000000600a86061a8153600a858161162657611625612886565b5b049450600085036115dd575b819350505050919050565b611647838361180e565b61165460008484846113e8565b611693576040517f08c379a000000000000000000000000000000000000000000000000000000000815260040161168a906126f1565b60405180910390fd5b505050565b6000808273ffffffffffffffffffffffffffffffffffffffff163b119050919050565b600080600090507a184f03e93ff9f4daa797ed6e38ed64bf6a1f0100000000000000008310611719577a184f03e93ff9f4daa797ed6e38ed64bf6a1f010000000000000000838161170f5761170e612886565b5b0492506040810190505b6d04ee2d6d415b85acef81000000008310611756576d04ee2d6d415b85acef8100000000838161174c5761174b612886565b5b0492506020810190505b662386f26fc10000831061178557662386f26fc10000838161177b5761177a612886565b5b0492506010810190505b6305f5e10083106117ae576305f5e10083816117a4576117a3612886565b5b0492506008810190505b61271083106117d35761271083816117c9576117c8612886565b5b0492506004810190505b606483106117f657606483816117ec576117eb612886565b5b0492506002810190505b600a8310611805576001810190505b80915050919050565b600073ffffffffffffffffffffffffffffffffffffffff168273ffffffffffffffffffffffffffffffffffffffff160361187d576040517f08c379a000000000000000000000000000000000000000000000000000000000815260040161187490612901565b60405180910390fd5b6118868161139b565b156118c6576040517f08c379a00000000000000000000000000000000000000000000000000000000081526004016118bd9061296d565b60405180910390fd5b6118d46000838360016113dc565b6118dd8161139b565b1561191d576040517f08c379a00000000000000000000000000000000000000000000000000000000081526004016119149061296d565b60405180910390fd5b6001600360008473ffffffffffffffffffffffffffffffffffffffff1673ffffffffffffffffffffffffffffffffffffffff16815260200190815260200160002060008282540192505081905550816002600083815260200190815260200160002060006101000a81548173ffffffffffffffffffffffffffffffffffffffff021916908373ffffffffffffffffffffffffffffffffffffffff160217905550808273ffffffffffffffffffffffffffffffffffffffff16600073ffffffffffffffffffffffffffffffffffffffff167fddf252ad1be2c89b69c2b068fc378daa952ba7f163c4a11628f55a4df523b3ef60405160405180910390a4611a276000838360016113e2565b5050565b828054611a37906121aa565b90600052602060002090601f016020900481019282611a595760008555611aa0565b82601f10611a7257805160ff1916838001178555611aa0565b82800160010185558215611aa0579182015b82811115611a9f578251825591602001919060010190611a84565b5b509050611aad9190611ab1565b5090565b5b80821115611aca576000816000905550600101611ab2565b5090565b6000604051905090565b600080fd5b600080fd5b60007fffffffff0000000000000000000000000000000000000000000000000000000082169050919050565b611b1781611ae2565b8114611b2257600080fd5b50565b600081359050611b3481611b0e565b92915050565b600060208284031215611b5057611b4f611ad8565b5b6000611b5e84828501611b25565b91505092915050565b60008115159050919050565b611b7c81611b67565b82525050565b6000602082019050611b976000830184611b73565b92915050565b600081519050919050565b600082825260208201905092915050565b60005b83811015611bd7578082015181840152602081019050611bbc565b83811115611be6576000848401525b50505050565b6000601f19601f8301169050919050565b6000611c0882611b9d565b611c128185611ba8565b9350611c22818560208601611bb9565b611c2b81611bec565b840191505092915050565b60006020820190508181036000830152611c508184611bfd565b905092915050565b6000819050919050565b611c6b81611c58565b8114611c7657600080fd5b50565b600081359050611c8881611c62565b92915050565b600060208284031215611ca457611ca3611ad8565b5b6000611cb284828501611c79565b91505092915050565b600073ffffffffffffffffffffffffffffffffffffffff82169050919050565b6000611ce682611cbb565b9050919050565b611cf681611cdb565b82525050565b6000602082019050611d116000830184611ced565b92915050565b611d2081611cdb565b8114611d2b57600080fd5b50565b600081359050611d3d81611d17565b92915050565b60008060408385031215611d5a57611d59611ad8565b5b6000611d6885828601611d2e565b9250506020611d7985828601611c79565b9150509250929050565b600080600060608486031215611d9c57611d9b611ad8565b5b6000611daa86828701611d2e565b9350506020611dbb86828701611d2e565b9250506040611dcc86828701611c79565b9150509250925092565b600060208284031215611dec57611deb611ad8565b5b6000611dfa84828501611d2e565b91505092915050565b611e0c81611c58565b82525050565b6000602082019050611e276000830184611e03565b92915050565b611e3681611b67565b8114611e4157600080fd5b50565b600081359050611e5381611e2d565b92915050565b60008060408385031215611e7057611e6f611ad8565b5b6000611e7e85828601611d2e565b9250506020611e8f85828601611e44565b9150509250929050565b600080fd5b600080fd5b7f4e487b7100000000000000000000000000000000000000000000000000000000600052604160045260246000fd5b611edb82611bec565b810181811067ffffffffffffffff82111715611efa57611ef9611ea3565b5b80604052505050565b6000611f0d611ace565b9050611f198282611ed2565b919050565b600067ffffffffffffffff821115611f3957611f38611ea3565b5b611f4282611bec565b9050602081019050919050565b82818337600083830152505050565b6000611f71611f6c84611f1e565b611f03565b905082815260208101848484011115611f8d57611f8c611e9e565b5b611f98848285611f4f565b509392505050565b600082601f830112611fb557611fb4611e99565b5b8135611fc5848260208601611f5e565b91505092915050565b60008060008060808587031215611fe857611fe7611ad8565b5b6000611ff687828801611d2e565b945050602061200787828801611d2e565b935050604061201887828801611c79565b925050606085013567ffffffffffffffff81111561203957612038611add565b5b61204587828801611fa0565b91505092959194509250565b600067ffffffffffffffff82111561206c5761206b611ea3565b5b61207582611bec565b9050602081019050919050565b600061209561209084612051565b611f03565b9050828152602081018484840111156120b1576120b0611e9e565b5b6120bc848285611f4f565b509392505050565b600082601f8301126120d9576120d8611e99565b5b81356120e9848260208601612082565b91505092915050565b60006020828403121561210857612107611ad8565b5b600082013567ffffffffffffffff81111561212657612125611add565b5b612132848285016120c4565b91505092915050565b6000806040838503121561215257612151611ad8565b5b600061216085828601611d2e565b925050602061217185828601611d2e565b9150509250929050565b7f4e487b7100000000000000000000000000000000000000000000000000000000600052602260045260246000fd5b600060028204905060018216806121c257607f821691505b6020821081036121d5576121d461217b565b5b50919050565b7f4552433732313a20617070726f76616c20746f2063757272656e74206f776e6560008201527f7200000000000000000000000000000000000000000000000000000000000000602082015250565b6000612237602183611ba8565b9150612242826121db565b604082019050919050565b600060208201905081810360008301526122668161222a565b9050919050565b7f4552433732313a20617070726f76652063616c6c6572206973206e6f7420746f60008201527f6b656e206f776e6572206f7220617070726f76656420666f7220616c6c000000602082015250565b60006122c9603d83611ba8565b91506122d48261226d565b604082019050919050565b600060208201905081810360008301526122f8816122bc565b9050919050565b7f4552433732313a2063616c6c6572206973206e6f7420746f6b656e206f776e6560008201527f72206f7220617070726f76656400000000000000000000000000000000000000602082015250565b600061235b602d83611ba8565b9150612366826122ff565b604082019050919050565b6000602082019050818103600083015261238a8161234e565b9050919050565b7f4552433732313a20696e76616c696420746f6b656e2049440000000000000000600082015250565b60006123c7601883611ba8565b91506123d282612391565b602082019050919050565b600060208201905081810360008301526123f6816123ba565b9050919050565b7f4552433732313a2061646472657373207a65726f206973206e6f74206120766160008201527f6c6964206f776e65720000000000000000000000000000000000000000000000602082015250565b6000612459602983611ba8565b9150612464826123fd565b604082019050919050565b600060208201905081810360008301526124888161244c565b9050919050565b600081905092915050565b60006124a582611b9d565b6124af818561248f565b93506124bf818560208601611bb9565b80840191505092915050565b60006124d7828561249a565b91506124e3828461249a565b91508190509392505050565b7f4552433732313a207472616e736665722066726f6d20696e636f72726563742060008201527f6f776e6572000000000000000000000000000000000000000000000000000000602082015250565b600061254b602583611ba8565b9150612556826124ef565b604082019050919050565b6000602082019050818103600083015261257a8161253e565b9050919050565b7f4552433732313a207472616e7366657220746f20746865207a65726f2061646460008201527f7265737300000000000000000000000000000000000000000000000000000000602082015250565b60006125dd602483611ba8565b91506125e882612581565b604082019050919050565b6000602082019050818103600083015261260c816125d0565b9050919050565b7f4552433732313a20617070726f766520746f2063616c6c657200000000000000600082015250565b6000612649601983611ba8565b915061265482612613565b602082019050919050565b600060208201905081810360008301526126788161263c565b9050919050565b7f4552433732313a207472616e7366657220746f206e6f6e20455243373231526560008201527f63656976657220696d706c656d656e7465720000000000000000000000000000602082015250565b60006126db603283611ba8565b91506126e68261267f565b604082019050919050565b6000602082019050818103600083015261270a816126ce565b9050919050565b7f45524337323155524953746f726167653a2055524920736574206f66206e6f6e60008201527f6578697374656e7420746f6b656e000000000000000000000000000000000000602082015250565b600061276d602e83611ba8565b915061277882612711565b604082019050919050565b6000602082019050818103600083015261279c81612760565b9050919050565b600081519050919050565b600082825260208201905092915050565b60006127ca826127a3565b6127d481856127ae565b93506127e4818560208601611bb9565b6127ed81611bec565b840191505092915050565b600060808201905061280d6000830187611ced565b61281a6020830186611ced565b6128276040830185611e03565b818103606083015261283981846127bf565b905095945050505050565b60008151905061285381611b0e565b92915050565b60006020828403121561286f5761286e611ad8565b5b600061287d84828501612844565b91505092915050565b7f4e487b7100000000000000000000000000000000000000000000000000000000600052601260045260246000fd5b7f4552433732313a206d696e7420746f20746865207a65726f2061646472657373600082015250565b60006128eb602083611ba8565b91506128f6826128b5565b602082019050919050565b6000602082019050818103600083015261291a816128de565b9050919050565b7f4552433732313a20746f6b656e20616c7265616479206d696e74656400000000600082015250565b6000612957601c83611ba8565b915061296282612921565b602082019050919050565b600060208201905081810360008301526129868161294a565b905091905056fea2646970667358221220b3beb0871244e75e2532dc992597332f6c6545fd87b0ce4b158b924be6ea3b8b64736f6c634300080d0033",
  "linkReferences": {},
  "deployedLinkReferences": {}
}